{
  "address": "0x200E106E4A2FE06cb0c3b28d7DA3Ff82E415a88A",
  "abi": [
    {
      "inputs": [
        {
          "internalType": "address",
          "name": "target",
          "type": "address"
        }
      ],
      "name": "AddressEmptyCode",
      "type": "error"
    },
    {
      "inputs": [
        {
          "internalType": "address",
          "name": "account",
          "type": "address"
        }
      ],
      "name": "AddressInsufficientBalance",
      "type": "error"
    },
    {
      "inputs": [],
      "name": "FailedInnerCall",
      "type": "error"
    },
    {
      "inputs": [],
      "name": "InactiveCampaign",
      "type": "error"
    },
    {
      "inputs": [],
      "name": "InsufficientBalance",
      "type": "error"
    },
    {
      "inputs": [],
      "name": "InvalidInitialization",
      "type": "error"
    },
    {
      "inputs": [],
      "name": "InvalidInput",
      "type": "error"
    },
    {
      "inputs": [],
      "name": "NotInitializing",
      "type": "error"
    },
    {
      "inputs": [],
      "name": "ReentrancyGuardReentrantCall",
      "type": "error"
    },
    {
      "inputs": [
        {
          "internalType": "address",
          "name": "token",
          "type": "address"
        }
      ],
      "name": "SafeERC20FailedOperation",
      "type": "error"
    },
    {
      "inputs": [],
      "name": "Unauthorized",
      "type": "error"
    },
    {
      "anonymous": false,
      "inputs": [
        {
          "indexed": true,
          "internalType": "uint256",
          "name": "campaignId",
          "type": "uint256"
        },
        {
          "indexed": true,
          "internalType": "address",
          "name": "creator",
          "type": "address"
        }
      ],
      "name": "CampaignCancelled",
      "type": "event"
    },
    {
      "anonymous": false,
      "inputs": [
        {
          "indexed": true,
          "internalType": "uint256",
          "name": "campaignId",
          "type": "uint256"
        },
        {
          "indexed": true,
          "internalType": "address",
          "name": "creator",
          "type": "address"
        },
        {
          "indexed": false,
          "internalType": "string",
          "name": "name",
          "type": "string"
        },
        {
          "indexed": false,
          "internalType": "uint256",
          "name": "targetFunding",
          "type": "uint256"
        },
        {
          "indexed": false,
          "internalType": "uint256",
          "name": "totalSupply",
          "type": "uint256"
        },
        {
          "indexed": false,
          "internalType": "uint256",
          "name": "deadline",
          "type": "uint256"
        }
      ],
      "name": "CampaignCreated",
      "type": "event"
    },
    {
      "anonymous": false,
      "inputs": [
        {
          "indexed": true,
          "internalType": "uint256",
          "name": "campaignId",
          "type": "uint256"
        }
      ],
      "name": "CampaignPromoted",
      "type": "event"
    },
    {
      "anonymous": false,
      "inputs": [
        {
          "indexed": true,
          "internalType": "uint256",
          "name": "campaignId",
          "type": "uint256"
        },
        {
          "indexed": false,
          "internalType": "uint256",
          "name": "totalFunding",
          "type": "uint256"
        }
      ],
      "name": "FundingCompleted",
      "type": "event"
    },
    {
      "anonymous": false,
      "inputs": [
        {
          "indexed": false,
          "internalType": "uint64",
          "name": "version",
          "type": "uint64"
        }
      ],
      "name": "Initialized",
      "type": "event"
    },
    {
      "anonymous": false,
      "inputs": [
        {
          "indexed": true,
          "internalType": "uint256",
          "name": "campaignId",
          "type": "uint256"
        },
        {
          "indexed": false,
          "internalType": "uint256",
          "name": "usdcAmount",
          "type": "uint256"
        },
        {
          "indexed": false,
          "internalType": "uint256",
          "name": "tokensAmount",
          "type": "uint256"
        }
      ],
      "name": "LiquidityAdded",
      "type": "event"
    },
    {
      "anonymous": false,
      "inputs": [
        {
          "indexed": true,
          "internalType": "uint256",
          "name": "campaignId",
          "type": "uint256"
        },
        {
          "indexed": true,
          "internalType": "address",
          "name": "user",
          "type": "address"
        },
        {
          "indexed": false,
          "internalType": "uint256",
          "name": "amount",
          "type": "uint256"
        }
      ],
      "name": "OgPointsAwarded",
      "type": "event"
    },
    {
      "anonymous": false,
      "inputs": [
        {
          "indexed": false,
          "internalType": "uint256",
          "name": "newFee",
          "type": "uint256"
        }
      ],
      "name": "PlatformFeeUpdated",
      "type": "event"
    },
    {
      "anonymous": false,
      "inputs": [
        {
          "indexed": true,
          "internalType": "uint256",
          "name": "campaignId",
          "type": "uint256"
        },
        {
          "indexed": true,
          "internalType": "address",
          "name": "investor",
          "type": "address"
        },
        {
          "indexed": false,
          "internalType": "uint256",
          "name": "amount",
          "type": "uint256"
        }
      ],
      "name": "RefundClaimed",
      "type": "event"
    },
    {
      "anonymous": false,
      "inputs": [
        {
          "indexed": true,
          "internalType": "uint256",
          "name": "campaignId",
          "type": "uint256"
        },
        {
          "indexed": true,
          "internalType": "address",
          "name": "buyer",
          "type": "address"
        },
        {
          "indexed": false,
          "internalType": "uint256",
          "name": "usdcAmount",
          "type": "uint256"
        },
        {
          "indexed": false,
          "internalType": "uint256",
          "name": "tokensReceived",
          "type": "uint256"
        },
        {
          "indexed": false,
          "internalType": "uint256",
          "name": "timestamp",
          "type": "uint256"
        }
      ],
      "name": "TokensPurchased",
      "type": "event"
    },
    {
      "anonymous": false,
      "inputs": [
        {
          "indexed": true,
          "internalType": "uint256",
          "name": "campaignId",
          "type": "uint256"
        },
        {
          "indexed": true,
          "internalType": "address",
          "name": "user",
          "type": "address"
        },
        {
          "indexed": false,
          "internalType": "uint256",
          "name": "amount",
          "type": "uint256"
        }
      ],
      "name": "UserParticipatedInCampaign",
      "type": "event"
    },
    {
      "inputs": [],
      "name": "BASIS_POINTS",
      "outputs": [
        {
          "internalType": "uint16",
          "name": "",
          "type": "uint16"
        }
      ],
      "stateMutability": "view",
      "type": "function"
    },
    {
      "inputs": [],
      "name": "CREATOR_ALLOCATION_PCT",
      "outputs": [
        {
          "internalType": "uint16",
          "name": "",
          "type": "uint16"
        }
      ],
      "stateMutability": "view",
      "type": "function"
    },
    {
      "inputs": [],
      "name": "LIQUIDITY_ALLOCATION_PCT",
      "outputs": [
        {
          "internalType": "uint16",
          "name": "",
          "type": "uint16"
        }
      ],
      "stateMutability": "view",
      "type": "function"
    },
    {
      "inputs": [],
      "name": "MAX_DEADLINE",
      "outputs": [
        {
          "internalType": "uint64",
          "name": "",
          "type": "uint64"
        }
      ],
      "stateMutability": "view",
      "type": "function"
    },
    {
      "inputs": [],
      "name": "MAX_RESERVE_RATIO",
      "outputs": [
        {
          "internalType": "uint32",
          "name": "",
          "type": "uint32"
        }
      ],
      "stateMutability": "view",
      "type": "function"
    },
    {
      "inputs": [],
      "name": "MAX_TOTAL_SUPPLY",
      "outputs": [
        {
          "internalType": "uint128",
          "name": "",
          "type": "uint128"
        }
      ],
      "stateMutability": "view",
      "type": "function"
    },
    {
      "inputs": [],
      "name": "MIN_DEADLINE",
      "outputs": [
        {
          "internalType": "uint64",
          "name": "",
          "type": "uint64"
        }
      ],
      "stateMutability": "view",
      "type": "function"
    },
    {
      "inputs": [],
      "name": "MIN_TOTAL_SUPPLY",
      "outputs": [
        {
          "internalType": "uint128",
          "name": "",
          "type": "uint128"
        }
      ],
      "stateMutability": "view",
      "type": "function"
    },
    {
      "inputs": [],
      "name": "OG_POINTS_ALLOCATION",
      "outputs": [
        {
          "internalType": "uint16",
          "name": "",
          "type": "uint16"
        }
      ],
      "stateMutability": "view",
      "type": "function"
    },
    {
      "inputs": [],
      "name": "TOKENS_FOR_SALE_PCT",
      "outputs": [
        {
          "internalType": "uint16",
          "name": "",
          "type": "uint16"
        }
      ],
      "stateMutability": "view",
      "type": "function"
    },
    {
      "inputs": [
        {
          "internalType": "uint32",
          "name": "_campaignId",
          "type": "uint32"
        }
      ],
      "name": "_getCampaignInfo",
      "outputs": [
        {
          "components": [
            {
              "internalType": "uint32",
              "name": "id",
              "type": "uint32"
            },
            {
              "internalType": "address",
              "name": "creator",
              "type": "address"
            },
            {
              "internalType": "uint128",
              "name": "targetAmount",
              "type": "uint128"
            },
            {
              "internalType": "uint128",
              "name": "amountRaised",
              "type": "uint128"
            },
            {
              "internalType": "uint128",
              "name": "tokensSold",
              "type": "uint128"
            },
            {
              "internalType": "uint128",
              "name": "totalSupply",
              "type": "uint128"
            },
            {
              "internalType": "uint128",
              "name": "tokensForSale",
              "type": "uint128"
            },
            {
              "internalType": "uint128",
              "name": "creatorAllocation",
              "type": "uint128"
            },
            {
              "internalType": "uint128",
              "name": "liquidityAllocation",
              "type": "uint128"
            },
            {
              "internalType": "uint128",
              "name": "platformFeeTokens",
              "type": "uint128"
            },
            {
              "internalType": "uint64",
              "name": "deadline",
              "type": "uint64"
            },
            {
              "internalType": "address",
              "name": "tokenAddress",
              "type": "address"
            },
            {
              "internalType": "bool",
              "name": "isActive",
              "type": "bool"
            },
            {
              "internalType": "bool",
              "name": "isFundingComplete",
              "type": "bool"
            },
            {
              "internalType": "bool",
              "name": "isCancelled",
              "type": "bool"
            },
            {
              "internalType": "string",
              "name": "name",
              "type": "string"
            },
            {
              "internalType": "string",
              "name": "symbol",
              "type": "string"
            },
            {
              "internalType": "string",
              "name": "description",
              "type": "string"
            },
            {
              "internalType": "uint32",
              "name": "reserveRatio",
              "type": "uint32"
            },
            {
              "internalType": "uint32",
              "name": "blockNumberCreated",
              "type": "uint32"
            },
            {
              "internalType": "uint128",
              "name": "promotionalOgPoints",
              "type": "uint128"
            },
            {
              "internalType": "bool",
              "name": "isPromoted",
              "type": "bool"
            },
            {
              "internalType": "address",
              "name": "uniswapPair",
              "type": "address"
            }
          ],
          "internalType": "struct Launchpad.CampaignInfo",
          "name": "",
          "type": "tuple"
        }
      ],
      "stateMutability": "view",
      "type": "function"
    },
    {
      "inputs": [
        {
          "internalType": "uint32",
          "name": "_campaignId",
          "type": "uint32"
        },
        {
          "internalType": "uint128",
          "name": "_usdcAmount",
          "type": "uint128"
        }
      ],
      "name": "buyTokens",
      "outputs": [],
      "stateMutability": "nonpayable",
      "type": "function"
    },
    {
      "inputs": [],
      "name": "campaignCount",
      "outputs": [
        {
          "internalType": "uint32",
          "name": "",
          "type": "uint32"
        }
      ],
      "stateMutability": "view",
      "type": "function"
    },
    {
      "inputs": [
        {
          "internalType": "uint256",
          "name": "",
          "type": "uint256"
        }
      ],
      "name": "campaigns",
      "outputs": [
        {
          "internalType": "address",
          "name": "creator",
          "type": "address"
        },
        {
          "internalType": "contract IERC20",
          "name": "token",
          "type": "address"
        },
        {
          "internalType": "address",
          "name": "uniswapPair",
          "type": "address"
        },
        {
          "internalType": "uint128",
          "name": "targetAmount",
          "type": "uint128"
        },
        {
          "internalType": "uint128",
          "name": "amountRaised",
          "type": "uint128"
        },
        {
          "internalType": "uint64",
          "name": "deadline",
          "type": "uint64"
        },
        {
          "internalType": "uint32",
          "name": "reserveRatio",
          "type": "uint32"
        },
        {
          "internalType": "uint32",
          "name": "blockNumberCreated",
          "type": "uint32"
        },
        {
          "internalType": "bool",
          "name": "isActive",
          "type": "bool"
        },
        {
          "internalType": "bool",
          "name": "isFundingComplete",
          "type": "bool"
        },
        {
          "internalType": "bool",
          "name": "isCancelled",
          "type": "bool"
        },
        {
          "internalType": "bool",
          "name": "isPromoted",
          "type": "bool"
        },
        {
          "internalType": "uint128",
          "name": "tokensSold",
          "type": "uint128"
        },
        {
          "internalType": "uint128",
          "name": "totalSupply",
          "type": "uint128"
        },
        {
          "internalType": "uint128",
          "name": "tokensForSale",
          "type": "uint128"
        },
        {
          "internalType": "uint128",
          "name": "creatorAllocation",
          "type": "uint128"
        },
        {
          "internalType": "uint128",
          "name": "liquidityAllocation",
          "type": "uint128"
        },
        {
          "internalType": "uint128",
          "name": "platformFeeTokens",
          "type": "uint128"
        },
        {
          "internalType": "uint128",
          "name": "promotionalOgPoints",
          "type": "uint128"
        },
        {
          "internalType": "uint32",
          "name": "id",
          "type": "uint32"
        },
        {
          "internalType": "string",
          "name": "name",
          "type": "string"
        },
        {
          "internalType": "string",
          "name": "symbol",
          "type": "string"
        },
        {
          "internalType": "string",
          "name": "description",
          "type": "string"
        }
      ],
      "stateMutability": "view",
      "type": "function"
    },
    {
      "inputs": [
        {
          "internalType": "uint32",
          "name": "_campaignId",
          "type": "uint32"
        }
      ],
      "name": "cancelCampaign",
      "outputs": [],
      "stateMutability": "nonpayable",
      "type": "function"
    },
    {
      "inputs": [
        {
          "internalType": "uint32",
          "name": "_campaignId",
          "type": "uint32"
        }
      ],
      "name": "claimRefund",
      "outputs": [],
      "stateMutability": "nonpayable",
      "type": "function"
    },
    {
      "inputs": [
        {
          "internalType": "string",
          "name": "_name",
          "type": "string"
        },
        {
          "internalType": "string",
          "name": "_symbol",
          "type": "string"
        },
        {
          "internalType": "string",
          "name": "_description",
          "type": "string"
        },
        {
          "internalType": "uint128",
          "name": "_targetFunding",
          "type": "uint128"
        },
        {
          "internalType": "uint128",
          "name": "_totalSupply",
          "type": "uint128"
        },
        {
          "internalType": "uint32",
          "name": "_reserveRatio",
          "type": "uint32"
        },
        {
          "internalType": "uint64",
          "name": "_deadline",
          "type": "uint64"
        }
      ],
      "name": "createCampaign",
      "outputs": [
        {
          "internalType": "uint32",
          "name": "campaignId",
          "type": "uint32"
        }
      ],
      "stateMutability": "nonpayable",
      "type": "function"
    },
    {
      "inputs": [
        {
          "internalType": "address",
          "name": "",
          "type": "address"
        },
        {
          "internalType": "uint256",
          "name": "",
          "type": "uint256"
        }
      ],
      "name": "creatorCampaigns",
      "outputs": [
        {
          "internalType": "uint32",
          "name": "",
          "type": "uint32"
        }
      ],
      "stateMutability": "view",
      "type": "function"
    },
    {
      "inputs": [
        {
          "internalType": "uint32",
          "name": "_campaignId",
          "type": "uint32"
        },
        {
          "internalType": "address",
          "name": "_user",
          "type": "address"
        }
      ],
      "name": "getUserInvestment",
      "outputs": [
        {
          "internalType": "uint128",
          "name": "",
          "type": "uint128"
        }
      ],
      "stateMutability": "view",
      "type": "function"
    },
    {
      "inputs": [
        {
          "internalType": "address",
          "name": "_contractOwner",
          "type": "address"
        },
        {
          "internalType": "address",
          "name": "_usdcToken",
          "type": "address"
        },
        {
          "internalType": "address",
          "name": "_uniswapRouter",
          "type": "address"
        },
        {
          "internalType": "address",
          "name": "_uniswapFactory",
          "type": "address"
        },
        {
          "internalType": "uint128",
          "name": "_promotionFee",
          "type": "uint128"
        }
      ],
      "name": "initialize",
      "outputs": [],
      "stateMutability": "nonpayable",
      "type": "function"
    },
    {
      "inputs": [
        {
          "internalType": "address",
          "name": "",
          "type": "address"
        }
      ],
      "name": "ogPoints",
      "outputs": [
        {
          "internalType": "uint128",
          "name": "",
          "type": "uint128"
        }
      ],
      "stateMutability": "view",
      "type": "function"
    },
    {
      "inputs": [],
      "name": "platformFeePercentage",
      "outputs": [
        {
          "internalType": "uint16",
          "name": "",
          "type": "uint16"
        }
      ],
      "stateMutability": "view",
      "type": "function"
    },
    {
      "inputs": [
        {
          "internalType": "uint32",
          "name": "_campaignId",
          "type": "uint32"
        }
      ],
      "name": "promoteCampaign",
      "outputs": [],
      "stateMutability": "nonpayable",
      "type": "function"
    },
    {
      "inputs": [],
      "name": "promotionFee",
      "outputs": [
        {
          "internalType": "uint128",
          "name": "",
          "type": "uint128"
        }
      ],
      "stateMutability": "view",
      "type": "function"
    },
    {
      "inputs": [],
      "name": "totalPlatformFees",
      "outputs": [
        {
          "internalType": "uint128",
          "name": "",
          "type": "uint128"
        }
      ],
      "stateMutability": "view",
      "type": "function"
    },
    {
      "inputs": [],
      "name": "uniswapFactory",
      "outputs": [
        {
          "internalType": "contract IUniswapV2Factory",
          "name": "",
          "type": "address"
        }
      ],
      "stateMutability": "view",
      "type": "function"
    },
    {
      "inputs": [],
      "name": "uniswapRouter",
      "outputs": [
        {
          "internalType": "contract IUniswapV2Router",
          "name": "",
          "type": "address"
        }
      ],
      "stateMutability": "view",
      "type": "function"
    },
    {
      "inputs": [],
      "name": "usdcToken",
      "outputs": [
        {
          "internalType": "contract IERC20",
          "name": "",
          "type": "address"
        }
      ],
      "stateMutability": "view",
      "type": "function"
    },
    {
      "inputs": [
        {
          "internalType": "address",
          "name": "",
          "type": "address"
        },
        {
          "internalType": "uint256",
          "name": "",
          "type": "uint256"
        }
      ],
      "name": "userParticipatedCampaigns",
      "outputs": [
        {
          "internalType": "uint32",
          "name": "",
          "type": "uint32"
        }
      ],
      "stateMutability": "view",
      "type": "function"
    },
    {
      "inputs": [
        {
          "internalType": "address",
          "name": "",
          "type": "address"
        },
        {
          "internalType": "uint256",
          "name": "",
          "type": "uint256"
        }
      ],
      "name": "userParticipation",
      "outputs": [
        {
          "internalType": "bool",
          "name": "",
          "type": "bool"
        }
      ],
      "stateMutability": "view",
      "type": "function"
    },
    {
      "stateMutability": "payable",
      "type": "receive"
    }
  ],
  "transactionHash": "0x10f3e14617df42468857f5eb17b8ef8be22a82d03ef69fd741f28ec2af367f4b",
  "args": [],
  "numDeployments": 1,
  "solcInputHash": "6ea6ddadd8f7071196faf5c9e59e7c33",
  "bytecode": "0x6080806040523461001657615c64908161001c8239f35b600080fdfe608060405260043610156200001d575b36156200001b57600080fd5b005b6000803560e01c80630bd58e201462001c595780631190016c1462001c3957806311eac8551462001c0e57806312e36a5a1462001bc7578063141961bc1462001a21578063208c85a1146200106e5780632fa362041462000c5b57806333039d3d1462000c315780633463f7ba1462000a2657806346ebbcb0146200099d5780635122c40914620009765780636f0e530f14620009555780637274e30d1462000930578063735de9f714620009055780637de9ab5b14620006f057806382eab34714620004bf57806385a63f9a146200046b57806385ae341d146200044b578063898d2922146200042c5780638bdb2afa1462000401578063b0b984af14620003d8578063c707ea3f146200038b578063cdd78cfc1462000364578063d3631fa5146200033b578063d5c60199146200031c578063ddc8af6114620002b8578063e1f1c4a71462000299578063e4151b9414620001d2578063effc081714620001b35763fe7b1e64146200019257506200000f565b34620001b05780600319360112620001b05760206040516107d08152f35b80fd5b5034620001b05780600319360112620001b05760206040516109c48152f35b5034620001b0576020366003190112620001b05763ffffffff80620001f66200290b565b169081159081156200028b575b50620002795780825260056020526040822080546001600160a01b03169190338390036200026857600401805462ff00ff60801b1916600160901b1790557f844c792f3d122ddfe76f9173cd5b48de3087f78395e0f62b94f9d471c991dcb28380a380f35b6040516282b42960e81b8152600490fd5b60405163b4fa3fb360e01b8152600490fd5b905082541681113862000203565b5034620001b05780600319360112620001b05760206040516127108152f35b5034620001b0576040366003190112620001b057620002d662002936565b6001600160a01b0316815260066020526040812080546024359290831015620001b057602063ffffffff6200030c858562002b84565b9190546040519260031b1c168152f35b5034620001b05780600319360112620001b05760206040516103e88152f35b5034620001b05780600319360112620001b05754604051602091821c6001600160801b03168152f35b5034620001b05780600319360112620001b057602061ffff60015460801c16604051908152f35b5034620001b0576040366003190112620001b05760209060ff906040906001600160a01b03620003ba62002936565b16815260088452818120602435825284522054166040519015158152f35b5034620001b05780600319360112620001b05760206001600160801b0360015416604051908152f35b5034620001b05780600319360112620001b0576004546040516001600160a01b039091168152602090f35b5034620001b05780600319360112620001b05760206040516113888152f35b5034620001b05780600319360112620001b0576020604051620151808152f35b5034620001b0576040366003190112620001b0576200048962002936565b6001600160a01b0316815260076020526040812080546024359290831015620001b057602063ffffffff6200030c858562002b84565b5034620001b05760a0366003190112620001b057620004dd62002936565b620004e76200294d565b906044356001600160a01b038181169291839003620006eb57606435818116809103620006eb57620005186200291f565b917ff0c57e16840df040f15088dc2f81fe391c3923bec73e23a9662efc9c229c6a009485549460ff8660401c1615956001600160401b03811698891580620006e3575b6001809b149081620006d8575b159081620006ce575b50620006bc5767ffffffffffffffff1982168a1789558491886200069c575b506200059b62002bbe565b620005a562002bbe565b8960008051602062005c0f833981519152551692831591821562000692575b821562000688575b82156200067c575b505062000279576bffffffffffffffffffffffff60a01b91826002541617600255816003541617600355600454161760045583546001600160801b03601960831b92169071ffffffffffffffffffffffffffffffffffff1916171783556200063a578280f35b805468ff0000000000000000191690556040519081527fc7f505b2f371ae2175ee4913f4499e1f2633a7b5936321eed1cdaeb6115181d290602090a138808280f35b161590503880620005d4565b85159250620005cc565b83159250620005c4565b68ffffffffffffffffff1916680100000000000000011789553862000590565b60405163f92ee8a960e01b8152600490fd5b9050153862000571565b303b15915062000568565b50876200055b565b600080fd5b5034620001b057602080600319360112620009015763ffffffff620007146200290b565b6200071e62002e6c565b16808352600582526040832091600483015460ff8160901c16908115620008d0575b5015620002795760019033600052600c840181526040600020938454946001600160801b038616956001600160801b0319169055828060a01b0392839101541685604051916370a0823160e01b83523360048401528383602481845afa908115620008c557879383926200088a575b50816200080c575b505050620007ed907ff3f402280ef0a7905e124aa621b65eaeb2725c343e8b36d398ed78c29daf285c9333906002541662002e9e565b6040519384523393a3600160008051602062005c0f8339815191525580f35b80919293503b15620008865760405163079cc67960e41b8152336004820152602481019290925290919081908390604490829084905af1918215620008795786926200085a575b80620007b7565b62000867919250620029a1565b620008755783853862000853565b8480fd5b50604051903d90823e3d90fd5b8280fd5b92509250508281813d8311620008bd575b620008a7818362002a05565b81010312620006eb5785918791519038620007af565b503d6200089b565b6040513d84823e3d90fd5b90506001600160401b03808216904216119081620008f1575b503862000740565b60ff915060881c161538620008e9565b5080fd5b5034620001b05780600319360112620001b0576003546040516001600160a01b039091168152602090f35b5034620001b05780600319360112620001b05763ffffffff6020915416604051908152f35b5034620001b05780600319360112620001b05760206040516301e133808152f35b5034620001b05780600319360112620001b057602060405169d3c21bcecceda10000008152f35b5034620001b0576040366003190112620001b057620009bb6200290b565b90620009c66200294d565b9163ffffffff80911690811590811562000a18575b50620002795781604091600c9352600560205220019060018060a01b031660005260205260206001600160801b0360406000205416604051908152f35b9050825416811138620009db565b5034620001b057602080600319360112620009015763ffffffff8062000a4b6200290b565b1691828452600581526040842091831590811562000c23575b50620002795781546001600160a01b0390811633036200026857600483019182549260ff8460801c1615801562000c15575b801562000c07575b62000bf5576001600160401b03808516904216116200027957602493828460025416604051968780926370a0823160e01b82523360048301525afa94851562000bea57889562000bb5575b506001600160801b039485600154161162000ba35760ff60981b1916600160981b1790556008840180546001600160801b0319166103e8179055600790930154855462000b7c949091640100000000600160a01b03919062000b539060801c84831c871662002c3b565b901b1690640100000000600160a01b031916178555600254169060015416903090339062002c98565b7f5bacbd5225f4b9ced4fe22731e1cb158a077f75f5ba55f4af24e49d80ba9a18b8280a280f35b604051631e9acf1760e31b8152600490fd5b9094508281813d831162000be2575b62000bd0818362002a05565b81010312620006eb5751933862000ae9565b503d62000bc4565b6040513d8a823e3d90fd5b60405163952ce6dd60e01b8152600490fd5b5060ff8460881c1662000a9e565b5060ff8460901c1662000a96565b905084541683113862000a64565b5034620001b05780600319360112620001b05760206040516c0c9f2c9cd04674edea400000008152f35b5034620001b0576020366003190112620001b05760409063ffffffff62000c816200290b565b826102c0855162000c9281620029cb565b82815282602082015282878201528260608201528260808201528260a08201528260c08201528260e08201528261010082015282610120820152826101408201528261016082015282610180820152826101a0820152826101c082015260606101e082015260606102008201526060610220820152826102408201528261026082015282610280820152826102a0820152015216815260056020522060088101549060ff60018060a01b03825416916001600160801b0360038201549462000e5c600b600585015494600681015495600782015460048301549760018060a01b036001850154169260018060a01b036002860154169b60606040519e8f9262000d9b84620029cb565b63ffffffff8c60801c16845260208401528b8116604084015260801c9101528c60808a831691015260801c60a08d015287811660c08d015260801c60e08c01528681166101008c015260801c6101208b01526001600160401b0387166101408b01526101608a0152868660801c1615156101808a0152868660881c1615156101a08a0152868660901c1615156101c08a015262000e3b6009820162002a27565b6101e08a015262000e4f600a820162002a27565b6102008a01520162002a27565b61022087015263ffffffff8360401c1661024087015263ffffffff8360601c166102608701521661028085015260981c1615156102a08301526102c082015260405180916020825263ffffffff815116602083015260018060a01b0360208201511660408301526001600160801b0360408201511660608301526001600160801b0360608201511660808301526001600160801b0360808201511660a08301526001600160801b0360a08201511660c08301526001600160801b0360c08201511660e08301526001600160801b0360e0820151166101008301526001600160801b03610100820151166101208301526001600160801b03610120820151166101408301526001600160401b036101408201511661016083015260018060a01b036101608201511661018083015261018081015115156101a08301526101a081015115156101c08301526101c081015115156101e08301526200100e62000fd66101e08301516102e061020086015261030085019062002ad9565b62000ff661020084015191601f1992838783030161022088015262002ad9565b90610220840151908583030161024086015262002ad9565b9063ffffffff6102408201511661026084015263ffffffff610260820151166102808401526001600160801b03610280820151166102a08401526102a081015115156102c08401526102c060018060a01b03910151166102e08301520390f35b5034620001b05760e0366003190112620001b0576004356001600160401b0381116200090157620010a490369060040162002b37565b6024356001600160401b0381116200088657620010c690369060040162002b37565b906044356001600160401b03811162001a1d57620010e990369060040162002b37565b92606435906001600160801b0382168203620006eb57620011096200291f565b63ffffffff60a43516918260a43503620006eb5760c435926001600160401b038416840362000901573315801562001a0b575b620002795769d3c21bcecceda10000006001600160801b038416108015620019eb575b6200027957620186a08110908115620019dd575b5062000279576001600160401b0342166201518081016001600160401b03811162001995576001600160401b03166001600160401b0385161190811591620019ab575b5062000279576113886001600160801b03831602806001600160801b0381160362001995576107d06001600160801b0384160296876001600160801b0381160362001995576109c46001600160801b03851602806001600160801b0381160362001995576127106001600160801b036200123a61ffff60015460801c168862002c1c565b160490896001600160801b03620012768462001270838b1694620012706127108681818b1604931604612710878d160462002c3b565b62002c3b565b1611620019505760405180610e0c8101106001600160401b03610e0c830111176200193c57610e0c62004e0382396060610e0c82015280620012db620012c46060610e0c8401018d62002ad9565b610e0c830181036020610e0c850101528662002ad9565b306040610e0c84010152039086f0918215620019315785549a63ffffffff808d16146200191d5763ffffffff8c1660010163ffffffff1663ffffffff198d1617875563ffffffff8c1660010163ffffffff16875260056020526040872095600887018d81549063ffffffff60801b9063ffffffff1660010160801b169063ffffffff60801b1916179055336bffffffffffffffffffffffff60a01b88541617875560038701916001600160801b0319926001600160801b038d1684825416179055896005890190620013c191906001600160801b0382549181199060801b169116179055565b60068801805484166001600160801b0390811661271094821685900482161792169290920460801b6001600160801b03191617905560078601926001600160801b031661271090046001600160801b0316908354161782556200143891906001600160801b0382549181199060801b169116179055565b6004830180546001850180546001600160a01b0319166001600160a01b039094169390931790925570ff0000000000000000ffffffffffffffff199091166001600160401b0387811691909117600160801b1790915587519081116200184457620014a7600984015462002964565b601f8111620018d4575b50806020601f82116001146200186457859162001858575b508160011b916000199060031b1c19161760098301555b8051906001600160401b0382116200184457819062001503600a85015462002964565b601f8111620017ef575b50602090601f83116001146200178057859262001774575b50508160011b916000199060031b1c191617600a8201555b87516001600160401b03811162001760576200155d600b83015462002964565b601f811162001717575b506020988990601f83116001146200168f579282620016129386936001600160401b039998966001600160801b03989262001683575b50508160011b916000199060031b1c191617600b8201555b60040180546fffffffffffffffff0000000000000000191660a435604090811b6bffffffff000000000000000016919091174360601b63ffffffff60601b161790915533825260068b52902063ffffffff89166001019062002c57565b816200162a6040519760808952608089019062002ad9565b9516888701521660408501521660608301527f9a6f279818b6c3ecad22dd882c63460a80cee0df2841c888adb08588aff26c2233928063ffffffff60018188160116930390a363ffffffff600181604051931601168152f35b0151905038806200159d565b90600b840185528a852091855b601f1985168110620016ff5750836001600160801b0396936001600160401b03999896936001936200161297601f19811610620016e5575b505050811b01600b820155620015b5565b015160001960f88460031b161c19169055388080620016d4565b91928c6001819286850151815501940192016200169c565b600b8301845260208420601f830160051c81016020841062001758575b601f830160051c820181106200174c57505062001567565b85815560010162001734565b508062001734565b634e487b7160e01b83526041600452602483fd5b01519050388062001525565b600a85018652602086209250601f198416865b818110620017d65750908460019594939210620017bc575b505050811b01600a8201556200153d565b015160001960f88460031b161c19169055388080620017ab565b9293602060018192878601518155019501930162001793565b909150600a8401855260208520601f840160051c8101602085106200183c575b90849392915b601f830160051c820181106200182d5750506200150d565b87815585945060010162001815565b50806200180f565b634e487b7160e01b84526041600452602484fd5b905088015138620014c9565b91506009840185526020852085925b8a601f1984168510620018bc57506001935082601f19811610620018a2575b5050811b016009830155620014e0565b8a015160001960f88460031b161c19169055388062001892565b81015182556020938401936001909201910162001873565b60098401855260208520601f830160051c81016020841062001915575b601f830160051c8201811062001909575050620014b1565b868155600101620018f1565b5080620018f1565b634e487b7160e01b87526011600452602487fd5b6040513d87823e3d90fd5b634e487b7160e01b86526041600452602486fd5b60405162461bcd60e51b815260206004820152601f60248201527f416c6c6f636174696f6e732065786365656420746f74616c20737570706c79006044820152606490fd5b634e487b7160e01b600052601160045260246000fd5b6301e133809150016001600160401b03811162001995576001600160401b03166001600160401b0384161138620011b6565b620dbba09150113862001173565b506c0c9f2c9cd04674edea400000006001600160801b038416116200115f565b506001600160801b038516156200113c565b8380fd5b5034620001b0576020366003190112620001b0576004358152600560205260409020600160a01b600190039081815416908260018201541692600282015416906003810154600482015460058301546006840154926007850154916008860154926009870162001a919062002a27565b9562001aa0600a890162002a27565b97600b0162001aaf9062002a27565b986040519b8c9b8c5260208c015260408b01526001600160801b039283851660608c0152608094851c858c01526001600160401b03871660a08c015263ffffffff96878160401c1660c08d0152878160601c1660e08d015280861c60ff1615156101008d01528060881c60ff1615156101208d01528060901c60ff1615156101408d015260981c60ff1615156101608c01528381166101808c0152841c6101a08b01528281166101c08b0152831c6101e08a01528181166102008a0152821c61022089015282166102408801521c166102608501526102e080610280860152840162001b9b9162002ad9565b8381036102a085015262001baf9162002ad9565b8281036102c084015262001bc39162002ad9565b0390f35b5034620001b0576020366003190112620001b0576020906001600160801b03906040906001600160a01b0362001bfc62002936565b16815260098452205416604051908152f35b5034620001b05780600319360112620001b0576002546040516001600160a01b039091168152602090f35b5034620001b05780600319360112620001b0576020604051620f42408152f35b5034620001b0576040366003190112620001b05762001c776200290b565b6024356001600160801b0381168103620008865762001c9562002e6c565b63ffffffff8216158015620028f4575b6200027957806001600160801b03821615620002795763ffffffff831684526005602052604084209060048201549160ff8360801c16158015620028e6575b8015620028d8575b62000bf5576001600160401b038084169042161162000279576002546040516370a0823160e01b815233600482015290602090829060249082906001600160a01b03165afa908115620025a05787916200289c575b506001600160801b0385161162000ba35760068101916001600160801b038354169162001d8d600382019563ffffffff6001600160801b03885499169160401c168860801c8662002f74565b9560058201936001600160801b03855416816001600160801b0362001db5818c168462002c3b565b161162002803575b50505033885260086020526040882063ffffffff8816895260205260ff6040892054161562002782575b60025462001e0d906001600160801b03841690309033906001600160a01b031662002c98565b62001e4162001e2183875460801c62002c3b565b86546001600160801b031660809190911b6001600160801b031916178655565b82546001600160801b0362001e5b81891682841662002c3b565b16906001600160801b031916178355338852600c81016020526040882080546001600160801b0362001e908582841662002c3b565b16906001600160801b03191617905560ff600482015460981c16806200276b575b6200263f575b600101546001600160a01b031694853b156200263b576040516340c10f1960e01b808252336004830152602482018390529689908290604490829084905af18015620025445762002618575b50916001600160801b03929183928360405192168252602082015242604082015233907f75f77114b0b88da95841d46a17da78c266e2c6cfbeafaf83dc456ad9669c33c3606063ffffffff8b1692a354169154161190811591620025fe575b5062001f80575b82600160008051602062005c0f8339815191525580f35b63ffffffff8216835260056020526040832060048101805461ffff60801b1916600160881b17905560038101549091608182901c9162001fc590839060801c62002e1d565b600184018054855460068701549395938993926001600160a01b0390811692169060801c823b1562000875576200200f928592836040518096819582948d84526004840162002ee3565b03925af1908115620025f3578391620025db575b505054600786015460801c906001600160a01b0316803b1562000886576200206083929183926040519485809481938b8352306004840162002ee3565b03925af18015620008c557620025c3575b505060025484546200209192916001600160a01b03918216911662002e9e565b6127106001600160801b03620020b161ffff60015460801c168562002c1c565b1604640100000000600160a01b03620020d98754926001600160801b038460201c1662002c3b565b60201b1690640100000000600160a01b03191617855563ffffffff84168552600560205284604081209160018060a01b03600184015416906001600160801b03600785015416823b1562001a1d5762002145928492836040518096819582948352306004840162002ee3565b03925af18015620008c557620025ab575b505060018060a01b036002541660018060a01b036003541660206040518093818a81620021938a63095ea7b360e01b988984526004840162002ee3565b03925af1908115620025a057620021ba602092620021f8948a9162002585575b5062002f06565b60018060a01b0360018501541660018060a01b0360035416896001600160801b03600788015416936040519687958694859384526004840162002ee3565b03925af180156200251357620022169187916200254f575062002f06565b60048054600254600184015460405163e6a4390560e01b81526001600160a01b03928316948101859052908216602482018190529092909116602083604481845afa928315620025445789936200251e575b506001600160a01b038316156200248d575b5050600283810180546001600160a01b0319166001600160a01b039384161790556003549054600185015460078601546001600160801b03908116979550908416939182169290911690606490620022d28662002c00565b160460646001600160801b03620022e98962002c00565b160460018060a01b038754169161012c4201421162002479579260609594926001600160801b038d938161010497816040519c8d9b8c9a62e8e33760e81b8c5260048c015260248b0152169d8e60448a015260648901521660848701521660a485015260c484015261012c420160e48401525af1908162002444575b507facef193e0e86e1befd5fb43ab2e5687427446a96568ffb8cb4f7d588c79f6c959360209363ffffffff93600393620023fe576002548154620023e793620023bd9290916001600160a01b03908116911662002e9e565b600181015481546007909201546001600160801b0316916001600160a01b03908116911662002e9e565b015460801c936040519485521692a2388062001f69565b60076001600160801b0391015416604051918252858201527fd7f28048575eead8851d024ead087913957dfb4fd1a02b4d1573f5352a5a2be3604085891692a2620023e7565b606090813d811162002471575b6200245d818362002a05565b810103126200246d573862002365565b8580fd5b503d62002451565b634e487b7160e01b8c52601160045260248cfd5b6040516364e329cb60e11b81526001600160a01b0394851660048201529190931660248201529160209150829060449082908a905af190811562002513578691620024dd575b508038806200227a565b62002504915060203d6020116200250b575b620024fb818362002a05565b81019062002f45565b38620024d3565b503d620024ef565b6040513d88823e3d90fd5b6200253c91935060203d6020116200250b57620024fb818362002a05565b913862002268565b6040513d8b823e3d90fd5b62002576915060203d6020116200257d575b6200256d818362002a05565b81019062002cf3565b38620021b3565b503d62002561565b620025769150843d86116200257d576200256d818362002a05565b6040513d89823e3d90fd5b620025b690620029a1565b6200087557843862002156565b620025ce90620029a1565b6200246d57853862002071565b620025e690620029a1565b6200090157813862002023565b6040513d85823e3d90fd5b9050546001600160801b0381169060801c10153862001f62565b916001600160801b03939198620026308594620029a1565b989193509162001f03565b8780fd5b85670de0b6b3a7640000810204670de0b6b3a7640000148615171562002757576200267f6001600160801b03855416670de0b6b3a7640000880262002e4b565b600882016001600160801b03670de0b6b3a7640000620026a482845416809562002e37565b0416918083116200274e575b50338a52600960205260408a2080546001600160801b03620026d58582841662002c3b565b16906001600160801b03191617905580546001600160801b03620026fc8482841662002e1d565b16906001600160801b0319161790556001600160801b036040519116815233907f0269333cbc36400fc73fb085202476d6a1407039478788eb116db8a6cfab81bf602063ffffffff8b1692a362001eb7565b915038620026b0565b634e487b7160e01b88526011600452602488fd5b506001600160801b03600882015416151562001eb1565b33885260086020526040882063ffffffff8816895260205260408820600160ff198254161790553388526007602052620027c08760408a2062002c57565b6040516001600160801b038316815233907fd57a271d2b16246edcb8e622f7aaf582041f536cb035aba09cf822517bf361a5602063ffffffff8b1692a362001de7565b670de0b6b3a764000092985081939450620028296001600160801b039291839262002e1d565b16971602806001600160801b03811603620028885781156200287457620028686001600160801b03809381670de0b6b3a7640000941604168862002e37565b04169038808062001dbd565b634e487b7160e01b89526012600452602489fd5b634e487b7160e01b89526011600452602489fd5b90506020813d602011620028cf575b81620028ba6020938362002a05565b81010312620028cb57513862001d41565b8680fd5b3d9150620028ab565b5060ff8360881c1662001cec565b5060ff8360901c1662001ce4565b5063ffffffff83541663ffffffff83161162001ca5565b6004359063ffffffff82168203620006eb57565b608435906001600160801b0382168203620006eb57565b600435906001600160a01b0382168203620006eb57565b602435906001600160a01b0382168203620006eb57565b90600182811c9216801562002996575b60208310146200298057565b634e487b7160e01b600052602260045260246000fd5b91607f169162002974565b6001600160401b038111620029b557604052565b634e487b7160e01b600052604160045260246000fd5b6102e081019081106001600160401b03821117620029b557604052565b61100081019081106001600160401b03821117620029b557604052565b90601f801991011681019081106001600160401b03821117620029b557604052565b906040519182600082549262002a3d8462002964565b90818452600194858116908160001462002ab4575060011462002a6d575b505062002a6b9250038362002a05565b565b9093915060005260209081600020936000915b81831062002a9b57505062002a6b9350820101388062002a5b565b8554888401850152948501948794509183019162002a80565b91505062002a6b94506020925060ff191682840152151560051b820101388062002a5b565b919082519283825260005b84811062002b06575050826000602080949584010152601f8019910116010190565b60208183018101518483018201520162002ae4565b6001600160401b038111620029b557601f01601f191660200190565b81601f82011215620006eb5780359062002b518262002b1b565b9262002b61604051948562002a05565b82845260208383010111620006eb57816000926020809301838601378301015290565b919091805483101562002ba857600052601c60206000208360031c019260021b1690565b634e487b7160e01b600052603260045260246000fd5b60ff7ff0c57e16840df040f15088dc2f81fe391c3923bec73e23a9662efc9c229c6a005460401c161562002bee57565b604051631afcd79f60e31b8152600490fd5b90605f6001600160801b03809316029182169182036200199557565b9190916001600160801b03808094169116029182169182036200199557565b9190916001600160801b03808094169116019182116200199557565b805468010000000000000000811015620029b55762002c7c9160018201815562002b84565b819291549060031b9163ffffffff809116831b921b1916179055565b6040516323b872dd60e01b60208201526001600160a01b03928316602482015292909116604483015260648083019390935291815260a08101918183106001600160401b03841117620029b55762002a6b9260405262002d0d565b90816020910312620006eb57518015158103620006eb5790565b60008062002d5e9260018060a01b03169360208151910182865af13d1562002dac573d9062002d3c8262002b1b565b9162002d4c604051938462002a05565b82523d6000602084013e5b8362002db5565b805190811515918262002d8e575b505062002d765750565b60249060405190635274afe760e01b82526004820152fd5b62002da3925060208091830101910162002cf3565b15388062002d6c565b60609062002d57565b9062002dde575080511562002dcc57805190602001fd5b604051630a12f52160e11b8152600490fd5b8151158062002e13575b62002df1575090565b604051639996b31560e01b81526001600160a01b039091166004820152602490fd5b50803b1562002de8565b6001600160801b0391821690821603919082116200199557565b818102929181159184041417156200199557565b811562002e56570490565b634e487b7160e01b600052601260045260246000fd5b60008051602062005c0f833981519152600281541462002e8c5760029055565b604051633ee5aeb560e01b8152600490fd5b60405163a9059cbb60e01b60208201526001600160a01b0392909216602483015260448083019390935291815262002a6b9162002edd60648362002a05565b62002d0d565b6001600160a01b0390911681526001600160801b03909116602082015260400190565b1562002f0e57565b60405162461bcd60e51b815260206004820152600f60248201526e30b8383937bb32903330b4b632b21760891b6044820152606490fd5b90816020910312620006eb57516001600160a01b0381168103620006eb5790565b919082018092116200199557565b92801562003091578315158062003081575b806200306d575b15620030295781156200301057620f424063ffffffff84161462002ff55762002fd2928262002fc360ff9462002fc99462002f66565b6200309a565b92908462002e37565b91161c9060008183111562002fef57508103908111620019955790565b91505090565b620030079192506200300d9362002e37565b62002e4b565b90565b9250505064e8d4a5100080820291820403620019955790565b606460405162461bcd60e51b815260206004820152602060248201527f496e76616c696420626f6e64696e6720637572766520706172616d65746572736044820152fd5b50620f424063ffffffff8416111562002f8d565b5063ffffffff8316151562002f86565b50505050600090565b909291600160811b90818310156200437f578483106200433a576000607f9584871b6001607f1b95808204871490151715620042d55790620030dc9162002e4b565b9070015bf0a8b1457695355fb8ac404e7a79e382101562004156575080916000916fd3094c70f034de4b96ff7d5b6f99fcd88082101562004130575b50506fa45af1e1f40c333b3de1db4dd55f29a78084101562004102575b506f910b022db7ae67ce76b441c27035c6a180841015620040d4575b506f88415abbe9a76bead8d00cf112e4d4a880841015620040a6575b506f84102b00893f64c705e841d5d4064bd38084101562004078575b506f8204055aaef1c8bd5c3259f4822735a2808410156200404a575b506f810100ab00222d861931c15e39b44e99808410156200401c575b506f808040155aabbbe9451521693554f7338084101562003fee575b506f7fffffffffffffffffffffffffffffff198301838111620019955762003206818062002e37565b881c92600160801b85810388019190821162001995576200323c85916200323262003243948662002e37565b60801c9062002f66565b9262002e37565b881c906faaaaaaaaaaaaaaaaaaaaaaaaaaaaaaaa90878683030191821162001995576200323c85916200327b62003285948662002e37565b60811c9062002f66565b881c906f9999999999999999999999999999999990878683030191821162001995576200323c8591620032cb93620032c3600360801b918762002e37565b049062002f66565b881c906f9249249249249249249249249249249290878683030191821162001995576200323c8591620033036200330d948662002e37565b60821c9062002f66565b881c906f8e38e38e38e38e38e38e38e38e38e38e90878683030191821162001995576200323c85916200334b93620032c3600560801b918762002e37565b881c906f8ba2e8ba2e8ba2e8ba2e8ba2e8ba2e8b90878683030191821162001995576200323c85916200338993620032c3600360811b918762002e37565b881c926f89d89d89d89d89d89d89d89d89d89d8987868203019081116200199557620033cd92620033c691600760801b90620032c3908862002e37565b9362002e37565b871c856f88888888888888888888888888888888948503019384116200199557620034156200341f936200340b620f42409663ffffffff9462002e37565b60831c9062002f66565b915b169062002e37565b0490600160831b821015620039be576000926f0fffffffffffffffffffffffffffffff831662003450818062002e37565b871c6710e1b3be415a0000908181029181830414811517156200191d5782620034799162002e37565b881c906705a0913f6b1e00009081830291838304148315171562002757576200323c620034a892859262002f66565b881c90670168244fdac780009081830291838304148315171562002757576200323c620034d792859262002f66565b881c90664807432bc180009081830291838304148315171562002757576200323c6200350592859262002f66565b881c90660c0135dca040009081830291838304148315171562002757576200323c6200353392859262002f66565b881c906601b707b1cdc0009081830291838304148315171562002757576200323c6200356192859262002f66565b881c906536e0f639b8009081830291838304148315171562002757576200323c6200358e92859262002f66565b881c90650618fee9f8009081830291838304148315171562002757576200323c620035bb92859262002f66565b881c90649c197dcc009081830291838304148315171562002757576200323c620035e792859262002f66565b881c90640e30dce4009081830291838304148315171562002757576200323c6200361392859262002f66565b881c9064012ebd13009081830291838304148315171562002757576200323c6200363f92859262002f66565b881c906317499f009081830291838304148315171562002757576200323c6200366a92859262002f66565b881c906301a9d4809081830291838304148315171562002757576200323c6200369592859262002f66565b881c90621c63809081830291838304148315171562002757576200323c620036bf92859262002f66565b881c906201c6389081830291838304148315171562002757576200323c620036e992859262002f66565b881c90611ab89081830291838304148315171562002757576200323c6200371292859262002f66565b881c9061017c9081830291838304148315171562002757576200323c6200373b92859262002f66565b881c9060148202908282046014148315171562002757576200323c6200376392859262002f66565b881c90818004600114821517156200191d576200378f6200379693926721c3677c82b400009262002f66565b0462002f66565b93818501809511620039aa5750836001607c1b841662003967575b506001607d1b831662003927575b6001607e1b8316620038e8575b8216620038aa575b600160801b82166200386c575b81166200382f575b600160821b16620037f8579190565b6e2bf84208204f5977f9a8cf01fdc3079081810291818304149015171562001995576d03c6ab775dd0b95b4cbee7e65d1190049190565b906f0960aadc109e7a3bf4578099615711d79081810291818304149015171562001995576e2bf84208204f5977f9a8cf01fdce3d900490620037e9565b916f454aaa8efe072e7f6ddbab84b40a55c59081810291818304149015171562001995576f0960aadc109e7a3bf4578099615711ea900491620037e1565b916fbc5ab1b16779be3575bd8f0520a9f21e9081810291818304149015171562001995576f454aaa8efe072e7f6ddbab84b40a55c9900491620037d4565b927001368b2fc6f9609fe7aceb46aa619baed59081810291818304149015171562001995576fbc5ab1b16779be3575bd8f0520a9f21f900492620037cc565b9270018ebef9eac820ae8682b9793ac6d1e7789081810291818304149015171562001995577001368b2fc6f9609fe7aceb46aa619baed4900492620037bf565b9093507001c3d6a24ed82218787d624d3e5eba95f990818102918183041490151715620019955770018ebef9eac820ae8682b9793ac6d1e77690049238620037b1565b634e487b7160e01b81526011600452602490fd5b50929050620039cd83620043e9565b9260ff841680920360ff8111620019955760ff161c90620039ef828062002e37565b811c6f03442c4e6074a82f1797f72ac00000009081810291818304148115171562001995578362003a209162002e37565b821c906f0116b96f757c380fb287fd0e4000000080830290838204148315171562001995576200323c859162003a569362002f66565b821c906e45ae5bdd5f0e03eca1ff439000000080830290838204148315171562001995576200323c859162003a8b9362002f66565b821c906e0defabf91302cd95b9ffda5000000080830290838204148315171562001995576200323c859162003ac09362002f66565b821c906e02529ca9832b22439efff9b800000080830290838204148315171562001995576200323c859162003af59362002f66565b821c906d54f1cf12bd04e516b6da8800000080830290838204148315171562001995576200323c859162003b299362002f66565b821c906d0a9e39e257a09ca2d6db5100000080830290838204148315171562001995576200323c859162003b5d9362002f66565b821c906d012e066e7b839fa050c30900000080830290838204148315171562001995576200323c859162003b919362002f66565b821c906c1e33d7d926c329a1ad1a80000080830290838204148315171562001995576200323c859162003bc49362002f66565b821c906c02bee513bdb4a6b19b5f80000080830290838204148315171562001995576200323c859162003bf79362002f66565b821c906b3a9316fa79b88eccf2a0000080830290838204148315171562001995576200323c859162003c299362002f66565b821c906b048177ebe1fa81237520000080830290838204148315171562001995576200323c859162003c5b9362002f66565b821c906a5263fe90242dcbacf0000080830290838204148315171562001995576200323c859162003c8c9362002f66565b821c906a057e22099c030d9410000080830290838204148315171562001995576200323c859162003cbd9362002f66565b821c906957e22099c030d941000080830290838204148315171562001995576200323c859162003ced9362002f66565b821c9069052b6b5456997631000080830290838204148315171562001995576200323c859162003d1d9362002f66565b821c90684985f67696bf74800080830290838204148315171562001995576200323c859162003d4c9362002f66565b821c906803dea12ea99e49800080830290838204148315171562001995576200323c859162003d7b9362002f66565b821c906731880f2214b6e00080830290838204148315171562001995576200323c859162003da99362002f66565b821c9067025bcff56eb3600080830290838204148315171562001995576200323c859162003dd79362002f66565b821c90661b722e10ab100080830290838204148315171562001995576200323c859162003e049362002f66565b821c906601317c7007700080830290838204148315171562001995576200323c859162003e319362002f66565b821c90650cba84aafa0080830290838204148315171562001995576200323c859162003e5d9362002f66565b821c906482573a0a0080830290838204148315171562001995576200323c859162003e889362002f66565b821c906405035ad90080830290838204148315171562001995576200323c859162003eb39362002f66565b821c90632f881b0080830290838204148315171562001995576200323c859162003edd9362002f66565b821c906301b2934080830290838204148315171562001995576200323c859162003f079362002f66565b821c90620efc4080830290838204148315171562001995576200323c859162003f309362002f66565b821c90617fe080830290838204148315171562001995576200323c859162003f589362002f66565b821c9061042080830290838204148315171562001995576200323c859162003f809362002f66565b821c90602182028281046021148315171562001995576200323c859162003fa79362002f66565b821c9081800460011482151715620019955762003fea936f0688589cc0e9505e2f2fee55800000006200378f60019462003fe19462002f66565b911b9062002f66565b9190565b909291600160771b810190811062001995579180881b908082048714901517156200199557049138620031dd565b909291600160781b810190811062001995579180881b908082048714901517156200199557049138620031c1565b909291600160791b810190811062001995579180881b908082048714901517156200199557049138620031a5565b9092916001607a1b810190811062001995579180881b90808204871490151715620019955704913862003189565b9092916001607b1b810190811062001995579180881b9080820487149015171562001995570491386200316d565b9092916001607c1b810190811062001995579180881b90808204871490151715620019955704913862003151565b9092916001607d1b810190811062001995579180881b90808204871490151715620019955704913862003135565b9193506001607e1b925080881b9080159082048714171562001995570491388062003118565b908190600160801b90808281101562004265575b50868111620041c2575b50506f03f80fe03f80fe03f80fe03f80fe03f891828102928184041490151715620039aa5750620f42409163ffffffff6f05b9de1d10bf4103d647b0955897ba806200341f93049162003417565b909197929596835b60ff92838216908115620042535780620041e49162002e37565b9384871c94868610156200421e575b50505060ff1680156200420a5760001901620041ca565b634e487b7160e01b8a52601160045260248afd5b929960809390931c945090600019018181116200247957916001620042499260ff94161b9062002f66565b97903880620041f3565b50505096959297915050388062004174565b959296935050959284881c9580976101008810600014620042e95797965b600180821115620042a2571c966200429b90620043c4565b9662004283565b50509194969093969592955b60ff841690811c93891b60ff607f1b1690801590820488141715620042d55792386200416a565b634e487b7160e01b83526011600452602483fd5b96949795939291908960805b60ff8116801562004329576001811b8910156200431a575b5060011c168a90620042f5565b978199981c971797386200430d565b5050509296919593909450620042ae565b60405162461bcd60e51b815260206004820152601c60248201527f4261736573203c203120617265206e6f7420737570706f727465642e000000006044820152606490fd5b60405162461bcd60e51b815260206004820152601860248201527f626173654e2065786365656473206d61782076616c75652e00000000000000006044820152606490fd5b60ff60019116019060ff82116200199557565b90608081101562002ba85760051b0190565b906020607f9182915b620043fd81620043c4565b60ff80918186169182911610156200446357818316019081116200444e5760011c84169085620044378362004431620044e7565b620043d7565b5110620044455750620043f2565b925091620043f2565b60246000634e487b7160e01b81526011600452fd5b505092509290816200448362004478620044e7565b60ff841690620043d7565b51101562002fef57506200449a62004478620044e7565b5110156200300d5760405162461bcd60e51b815260206004820152601e60248201527f56616c7565206e6f7420666f756e6420696e206d6178457870417272617900006044820152606490fd5b604051620044f581620029e8565b6110008091369037604051906200450c82620029e8565b368237701c35fedd14ffffffffffffffffffffffff610400820152701b0ce43b323fffffffffffffffffffffff6104208201527019f0028ec1ffffffffffffffffffffffff6104408201527018ded91f0e7fffffffffffffffffffffff6104608201527017d8ec7f0417ffffffffffffffffffffff6104808201527016ddc6556cdbffffffffffffffffffffff6104a08201527015ecf52776a1ffffffffffffffffffffff6104c08201527015060c256cb2ffffffffffffffffffffff6104e0820152701428a2f98d72ffffffffffffffffffffff6105008201527013545598e5c23fffffffffffffffffffff610520820152701288c4161ce1dfffffffffffffffffffff6105408201527011c592761c666fffffffffffffffffffff61056082015270110a688680a757ffffffffffffffffffff610580820152701056f1b5bedf77ffffffffffffffffffff6105a0820152700faadceceeff8bffffffffffffffffffff6105c0820152700f05dc6b27edadffffffffffffffffffff6105e0820152700e67a5a25da4107fffffffffffffffffff610600820152700dcff115b14eedffffffffffffffffffff610620820152700d3e7a392431239fffffffffffffffffff610640820152700cb2ff529eb71e4fffffffffffffffffff610660820152700c2d415c3db974afffffffffffffffffff610680820152700bad03e7d883f69bffffffffffffffffff6106a0820152700b320d03b2c343d5ffffffffffffffffff6106c0820152700abc25204e02828dffffffffffffffffff6106e0820152700a4b16f74ee4bb207fffffffffffffffff6107008201527009deaf736ac1f569ffffffffffffffffff610720820152700976bd9952c7aa957fffffffffffffffff6107408201527009131271922eaa606fffffffffffffffff6107608201527008b380f3558668c46fffffffffffffffff610780820152700857ddf0117efa215bffffffffffffffff6107a08201527007ffffffffffffffffffffffffffffffff6107c08201527007abbf6f6abb9d087fffffffffffffffff6107e082015270075af62cbac95f7dfa7fffffffffffffff61080082015270070d7fb7452e187ac13fffffffffffffff6108208201527006c3390ecc8af379295fffffffffffffff61084082015270067c00a3b07ffc01fd6fffffffffffffff610860820152700637b647c39cbb9d3d27ffffffffffffff6108808201527005f63b1fc104dbd39587ffffffffffffff6108a08201527005b771955b36e12f7235ffffffffffffff6108c082015270057b3d49dda84556d6f6ffffffffffffff6108e082015270054183095b2c8ececf30ffffffffffffff61090082015270050a28be635ca2b888f77fffffffffffff6109208201527004d5156639708c9db33c3fffffffffffff6109408201527004a23105873875bd52dfdfffffffffffff610960820152700471649d87199aa990756fffffffffffff6109808201527004429a21a029d4c1457cfbffffffffffff6109a0820152700415bc6d6fb7dd71af2cb3ffffffffffff6109c08201527003eab73b3bbfe282243ce1ffffffffffff6109e08201527003c1771ac9fb6b4c18e229ffffffffffff610a00820152700399e96897690418f785257fffffffffff610a20820152700373fc456c53bb779bf0ea9fffffffffff610a4082015270034f9e8e490c48e67e6ab8bfffffffffff610a6082015270032cbfd4a7adc790560b3337ffffffffff610a8082015270030b50570f6e5d2acca94613ffffffffff610aa08201527002eb40f9f620fda6b56c2861ffffffffff610ac08201527002cc8340ecb0d0f520a6af58ffffffffff610ae08201527002af09481380a0a35cf1ba02ffffffffff610b00820152700292c5bdd3b92ec810287b1b3fffffffff610b20820152700277abdcdab07d5a77ac6d6b9fffffffff610b4082015270025daf6654b1eaa55fd64df5efffffffff610b60820152700244c49c648baa98192dce88b7ffffffff610b8082015270022ce03cd5619a311b2471268bffffffff610ba0820152700215f77c045fbe885654a44a0fffffffff610bc08201527001ffffffffffffffffffffffffffffffff610be08201527001eaefdbdaaee7421fc4d3ede5ffffffff610c008201527001d6bd8b2eb257df7e8ca57b09bfffffff610c208201527001c35fedd14b861eb0443f7f133fffffff610c408201527001b0ce43b322bcde4a56e8ada5afffffff610c6082015270019f0028ec1fff007f5a195a39dfffffff610c8082015270018ded91f0e72ee74f49b15ba527ffffff610ca082015270017d8ec7f04136f4e5615fd41a63ffffff610cc082015270016ddc6556cdb84bdc8d12d22e6fffffff610ce082015270015ecf52776a1155b5bd8395814f7fffff610d0082015270015060c256cb23b3b3cc3754cf40ffffff610d208201527001428a2f98d728ae223ddab715be3fffff610d4082015270013545598e5c23276ccf0ede68034fffff610d608201527001288c4161ce1d6f54b7f61081194fffff610d8082015270011c592761c666aa641d5a01a40f17ffff610da0820152700110a688680a7530515f3e6e6cfdcdffff610dc08201527001056f1b5bedf75c6bcb2ce8aed428ffff610de08201526ffaadceceeff8a0890f3875f008277fff610e008201526ff05dc6b27edad306388a600f6ba0bfff610e208201526fe67a5a25da41063de1495d5b18cdbfff610e408201526fdcff115b14eedde6fc3aa5353f2e4fff610e608201526fd3e7a3924312399f9aae2e0f868f8fff610e808201526fcb2ff529eb71e41582cccd5a1ee26fff610ea08201526fc2d415c3db974ab32a51840c0b67edff610ec08201526fbad03e7d883f69ad5b0a186184e06bff610ee08201526fb320d03b2c343d4829abd6075f0cc5ff610f008201526fabc25204e02828d73c6e80bcdb1a95bf610f208201526fa4b16f74ee4bb2040a1ec6c15fbbf2df610f408201526f9deaf736ac1f569deb1b5ae3f36c130f610f608201526f976bd9952c7aa957f5937d790ef65037610f808201526f9131271922eaa6064b73a22d0bd4f2bf610fa08201526f8b380f3558668c46c91c49a2f8e967b9610fc08201526f857ddf0117efa215952912839f6473e6610fe08201529056fe608060405234620003945762000e0c803803806200001d8162000399565b9283398101606082820312620003945781516001600160401b0391908281116200039457816200004f918501620003bf565b6020918285015184811162000394576040916200006e918701620003bf565b9401516001600160a01b039485821694918590036200039457825182811162000294576003918254916001958684811c9416801562000389575b8885101462000373578190601f948581116200031d575b508890858311600114620002b657600092620002aa575b505060001982861b1c191690861b1783555b8051938411620002945760049586548681811c9116801562000289575b82821014620002745783811162000229575b5080928511600114620001bb5750938394918492600095620001af575b50501b92600019911b1c19161781555b8115620001975750600580546001600160a01b03198116831790915560405192167f8be0079c531659141344cd1fd0a4f28419497f9722a3daafe3b4186f6b6457e0600080a36109da9081620004328239f35b602490600060405191631e4fbdf760e01b8352820152fd5b01519350388062000134565b92919084601f1981168860005285600020956000905b898383106200020e5750505010620001f3575b50505050811b01815562000144565b01519060f884600019921b161c1916905538808080620001e4565b858701518955909701969485019488935090810190620001d1565b87600052816000208480880160051c8201928489106200026a575b0160051c019087905b8281106200025d57505062000117565b600081550187906200024d565b9250819262000244565b602288634e487b7160e01b6000525260246000fd5b90607f169062000105565b634e487b7160e01b600052604160045260246000fd5b015190503880620000d6565b90889350601f19831691876000528a6000209260005b8c828210620003065750508411620002ed575b505050811b018355620000e8565b015160001983881b60f8161c19169055388080620002df565b8385015186558c97909501949384019301620002cc565b90915085600052886000208580850160051c8201928b861062000369575b918a91869594930160051c01915b82811062000359575050620000bf565b600081558594508a910162000349565b925081926200033b565b634e487b7160e01b600052602260045260246000fd5b93607f1693620000a8565b600080fd5b6040519190601f01601f191682016001600160401b038111838210176200029457604052565b919080601f84011215620003945782516001600160401b0381116200029457602090620003f5601f8201601f1916830162000399565b92818452828287010111620003945760005b8181106200041d57508260009394955001015290565b85810183015184820184015282016200040756fe6080604081815260048036101561001557600080fd5b600092833560e01c90816306fdde031461068c57508063095ea7b3146105e357806318160ddd146105c457806323b872dd146104d1578063313ce567146104b557806340c10f191461040657806342966c68146103e857806370a08231146103b1578063715018a61461035457806379cc6790146103215780638da5cb5b146102f857806395d89b41146101d8578063a9059cbb146101a7578063dd62ed3e1461015a5763f2fde38b146100c857600080fd5b34610156576020366003190112610156576100e16107ca565b906100ea6107fb565b6001600160a01b03918216928315610140575050600554826bffffffffffffffffffffffff60a01b821617600555167f8be0079c531659141344cd1fd0a4f28419497f9722a3daafe3b4186f6b6457e08380a380f35b51631e4fbdf760e01b8152908101849052602490fd5b8280fd5b5050346101a357806003193601126101a357806020926101786107ca565b6101806107e5565b6001600160a01b0391821683526001865283832091168252845220549051908152f35b5080fd5b5050346101a357806003193601126101a3576020906101d16101c76107ca565b6024359033610827565b5160018152f35b509190346101a357816003193601126101a357805190828454600181811c908083169283156102ee575b60209384841081146102db578388529081156102bf575060011461026a575b505050829003601f01601f191682019267ffffffffffffffff8411838510176102575750829182610253925282610781565b0390f35b634e487b7160e01b815260418552602490fd5b8787529192508591837f8a35acfbc15ff81a39ae7d344fd709f28e8600b4aa8c65c6b64bfe7fe36bd19b5b8385106102ab5750505050830101388080610221565b805488860183015293019284908201610295565b60ff1916878501525050151560051b8401019050388080610221565b634e487b7160e01b895260228a52602489fd5b91607f1691610202565b5050346101a357816003193601126101a35760055490516001600160a01b039091168152602090f35b5050346101a3573660031901126103515761034e61033d6107ca565b6103456107fb565b60243590610905565b80f35b80fd5b833461035157806003193601126103515761036d6107fb565b600580546001600160a01b0319811690915581906001600160a01b03167f8be0079c531659141344cd1fd0a4f28419497f9722a3daafe3b4186f6b6457e08280a380f35b5050346101a35760203660031901126101a35760209181906001600160a01b036103d96107ca565b16815280845220549051908152f35b8382346101a35760203660031901126101a35761034e903533610905565b5090346101565780600319360112610156576104206107ca565b906024359161042d6107fb565b6001600160a01b03169283156104a0576002549083820180921161048d575084927fddf252ad1be2c89b69c2b068fc378daa952ba7f163c4a11628f55a4df523b3ef9260209260025585855284835280852082815401905551908152a380f35b634e487b7160e01b865260119052602485fd5b84602492519163ec442f0560e01b8352820152fd5b5050346101a357816003193601126101a3576020905160128152f35b508234610351576060366003190112610351576104ec6107ca565b6104f46107e5565b916044359360018060a01b038316808352600160205286832033845260205286832054916000198303610530575b6020886101d1898989610827565b86831061059857811561058157331561056a575082526001602090815286832033845281529186902090859003905582906101d187610522565b8751634a1406b160e11b8152908101849052602490fd5b875163e602df0560e01b8152908101849052602490fd5b8751637dc7a0d960e11b8152339181019182526020820193909352604081018790528291506060010390fd5b5050346101a357816003193601126101a3576020906002549051908152f35b50346101565781600319360112610156576105fc6107ca565b602435903315610675576001600160a01b031691821561065e57508083602095338152600187528181208582528752205582519081527f8c5be1e5ebec7d5bd14f71427d1e84f3dd0314c0f7b2291e5b200ac8c7c3b925843392a35160018152f35b8351634a1406b160e11b8152908101859052602490fd5b835163e602df0560e01b8152808401869052602490fd5b849150833461015657826003193601126101565782600354600181811c90808316928315610777575b60209384841081146102db5783885290811561075b575060011461070557505050829003601f01601f191682019267ffffffffffffffff8411838510176102575750829182610253925282610781565b600387529192508591837fc2575a0e9e593c00f959f8c92f12db2869c3395a3b0502d05e2516446f71f85b5b8385106107475750505050830101858080610221565b805488860183015293019284908201610731565b60ff1916878501525050151560051b8401019050858080610221565b91607f16916106b5565b6020808252825181830181905290939260005b8281106107b657505060409293506000838284010152601f8019910116010190565b818101860151848201604001528501610794565b600435906001600160a01b03821682036107e057565b600080fd5b602435906001600160a01b03821682036107e057565b6005546001600160a01b0316330361080f57565b60405163118cdaa760e01b8152336004820152602490fd5b916001600160a01b038084169283156108ec57169283156108d357600090838252816020526040822054908382106108a1575091604082827fddf252ad1be2c89b69c2b068fc378daa952ba7f163c4a11628f55a4df523b3ef958760209652828652038282205586815220818154019055604051908152a3565b60405163391434e360e21b81526001600160a01b03919091166004820152602481019190915260448101839052606490fd5b60405163ec442f0560e01b815260006004820152602490fd5b604051634b637e8f60e11b815260006004820152602490fd5b906001600160a01b0382169081156108ec57600092828452836020526040842054908282106109725750817fddf252ad1be2c89b69c2b068fc378daa952ba7f163c4a11628f55a4df523b3ef926020928587528684520360408620558060025403600255604051908152a3565b60405163391434e360e21b81526001600160a01b03919091166004820152602481019190915260448101829052606490fdfea26469706673582212206707d83c8f05b46197f5bb5ab7778e7f3f93ca9999d3a25b69062a31386f18f664736f6c634300081400339b779b17422d0df92223018b32b4d1fa46e071723d6817e2486d003becc55f00a264697066735822122022ea1086dbc62cc8f0931f034aec053e76c2fe5ded99bb6850d846564dfe8d2b64736f6c63430008140033",
  "devdoc": {
    "details": "A fundraising platform implementing the Bancor bonding curve with dynamic token allocations",
    "errors": {
      "AddressEmptyCode(address)": [
        {
          "details": "There's no code at `target` (it is not a contract)."
        }
      ],
      "AddressInsufficientBalance(address)": [
        {
          "details": "The ETH balance of the account is not enough to perform the operation."
        }
      ],
      "FailedInnerCall()": [
        {
          "details": "A call to an address target failed. The target may have reverted."
        }
      ],
      "InvalidInitialization()": [
        {
          "details": "The contract is already initialized."
        }
      ],
      "NotInitializing()": [
        {
          "details": "The contract is not initializing."
        }
      ],
      "ReentrancyGuardReentrantCall()": [
        {
          "details": "Unauthorized reentrant call."
        }
      ],
      "SafeERC20FailedOperation(address)": [
        {
          "details": "An operation with an ERC20 token failed."
        }
      ]
    },
    "events": {
      "Initialized(uint64)": {
        "details": "Triggered when the contract has been initialized or reinitialized."
      }
    },
    "kind": "dev",
    "methods": {},
    "title": "Enhanced Fundraising Launchpad",
    "version": 1
  },
  "userdoc": {
    "kind": "user",
    "methods": {},
    "version": 1
  },
  "storageLayout": {
    "storage": [
      {
        "astId": 4009,
        "contract": "contracts/Launchpad.sol:Launchpad",
        "label": "campaignCount",
        "offset": 0,
        "slot": "0",
        "type": "t_uint32"
      },
      {
        "astId": 4011,
        "contract": "contracts/Launchpad.sol:Launchpad",
        "label": "totalPlatformFees",
        "offset": 4,
        "slot": "0",
        "type": "t_uint128"
      },
      {
        "astId": 4013,
        "contract": "contracts/Launchpad.sol:Launchpad",
        "label": "promotionFee",
        "offset": 0,
        "slot": "1",
        "type": "t_uint128"
      },
      {
        "astId": 4015,
        "contract": "contracts/Launchpad.sol:Launchpad",
        "label": "platformFeePercentage",
        "offset": 16,
        "slot": "1",
        "type": "t_uint16"
      },
      {
        "astId": 4018,
        "contract": "contracts/Launchpad.sol:Launchpad",
        "label": "usdcToken",
        "offset": 0,
        "slot": "2",
        "type": "t_contract(IERC20)1515"
      },
      {
        "astId": 4021,
        "contract": "contracts/Launchpad.sol:Launchpad",
        "label": "uniswapRouter",
        "offset": 0,
        "slot": "3",
        "type": "t_contract(IUniswapV2Router)9562"
      },
      {
        "astId": 4024,
        "contract": "contracts/Launchpad.sol:Launchpad",
        "label": "uniswapFactory",
        "offset": 0,
        "slot": "4",
        "type": "t_contract(IUniswapV2Factory)9306"
      },
      {
        "astId": 4029,
        "contract": "contracts/Launchpad.sol:Launchpad",
        "label": "campaigns",
        "offset": 0,
        "slot": "5",
        "type": "t_mapping(t_uint256,t_struct(Campaign)3922_storage)"
      },
      {
        "astId": 4034,
        "contract": "contracts/Launchpad.sol:Launchpad",
        "label": "creatorCampaigns",
        "offset": 0,
        "slot": "6",
        "type": "t_mapping(t_address,t_array(t_uint32)dyn_storage)"
      },
      {
        "astId": 4039,
        "contract": "contracts/Launchpad.sol:Launchpad",
        "label": "userParticipatedCampaigns",
        "offset": 0,
        "slot": "7",
        "type": "t_mapping(t_address,t_array(t_uint32)dyn_storage)"
      },
      {
        "astId": 4045,
        "contract": "contracts/Launchpad.sol:Launchpad",
        "label": "userParticipation",
        "offset": 0,
        "slot": "8",
        "type": "t_mapping(t_address,t_mapping(t_uint256,t_bool))"
      },
      {
        "astId": 4049,
        "contract": "contracts/Launchpad.sol:Launchpad",
        "label": "ogPoints",
        "offset": 0,
        "slot": "9",
        "type": "t_mapping(t_address,t_uint128)"
      }
    ],
    "types": {
      "t_address": {
        "encoding": "inplace",
        "label": "address",
        "numberOfBytes": "20"
      },
      "t_array(t_uint32)dyn_storage": {
        "base": "t_uint32",
        "encoding": "dynamic_array",
        "label": "uint32[]",
        "numberOfBytes": "32"
      },
      "t_bool": {
        "encoding": "inplace",
        "label": "bool",
        "numberOfBytes": "1"
      },
      "t_contract(IERC20)1515": {
        "encoding": "inplace",
        "label": "contract IERC20",
        "numberOfBytes": "20"
      },
      "t_contract(IUniswapV2Factory)9306": {
        "encoding": "inplace",
        "label": "contract IUniswapV2Factory",
        "numberOfBytes": "20"
      },
      "t_contract(IUniswapV2Router)9562": {
        "encoding": "inplace",
        "label": "contract IUniswapV2Router",
        "numberOfBytes": "20"
      },
      "t_mapping(t_address,t_array(t_uint32)dyn_storage)": {
        "encoding": "mapping",
        "key": "t_address",
        "label": "mapping(address => uint32[])",
        "numberOfBytes": "32",
        "value": "t_array(t_uint32)dyn_storage"
      },
      "t_mapping(t_address,t_mapping(t_uint256,t_bool))": {
        "encoding": "mapping",
        "key": "t_address",
        "label": "mapping(address => mapping(uint256 => bool))",
        "numberOfBytes": "32",
        "value": "t_mapping(t_uint256,t_bool)"
      },
      "t_mapping(t_address,t_uint128)": {
        "encoding": "mapping",
        "key": "t_address",
        "label": "mapping(address => uint128)",
        "numberOfBytes": "32",
        "value": "t_uint128"
      },
      "t_mapping(t_uint256,t_bool)": {
        "encoding": "mapping",
        "key": "t_uint256",
        "label": "mapping(uint256 => bool)",
        "numberOfBytes": "32",
        "value": "t_bool"
      },
      "t_mapping(t_uint256,t_struct(Campaign)3922_storage)": {
        "encoding": "mapping",
        "key": "t_uint256",
        "label": "mapping(uint256 => struct Launchpad.Campaign)",
        "numberOfBytes": "32",
        "value": "t_struct(Campaign)3922_storage"
      },
      "t_string_storage": {
        "encoding": "bytes",
        "label": "string",
        "numberOfBytes": "32"
      },
      "t_struct(Campaign)3922_storage": {
        "encoding": "inplace",
        "label": "struct Launchpad.Campaign",
        "members": [
          {
            "astId": 3872,
            "contract": "contracts/Launchpad.sol:Launchpad",
            "label": "creator",
            "offset": 0,
            "slot": "0",
            "type": "t_address"
          },
          {
            "astId": 3875,
            "contract": "contracts/Launchpad.sol:Launchpad",
            "label": "token",
            "offset": 0,
            "slot": "1",
            "type": "t_contract(IERC20)1515"
          },
          {
            "astId": 3877,
            "contract": "contracts/Launchpad.sol:Launchpad",
            "label": "uniswapPair",
            "offset": 0,
            "slot": "2",
            "type": "t_address"
          },
          {
            "astId": 3879,
            "contract": "contracts/Launchpad.sol:Launchpad",
            "label": "targetAmount",
            "offset": 0,
            "slot": "3",
            "type": "t_uint128"
          },
          {
            "astId": 3881,
            "contract": "contracts/Launchpad.sol:Launchpad",
            "label": "amountRaised",
            "offset": 16,
            "slot": "3",
            "type": "t_uint128"
          },
          {
            "astId": 3883,
            "contract": "contracts/Launchpad.sol:Launchpad",
            "label": "deadline",
            "offset": 0,
            "slot": "4",
            "type": "t_uint64"
          },
          {
            "astId": 3885,
            "contract": "contracts/Launchpad.sol:Launchpad",
            "label": "reserveRatio",
            "offset": 8,
            "slot": "4",
            "type": "t_uint32"
          },
          {
            "astId": 3887,
            "contract": "contracts/Launchpad.sol:Launchpad",
            "label": "blockNumberCreated",
            "offset": 12,
            "slot": "4",
            "type": "t_uint32"
          },
          {
            "astId": 3889,
            "contract": "contracts/Launchpad.sol:Launchpad",
            "label": "isActive",
            "offset": 16,
            "slot": "4",
            "type": "t_bool"
          },
          {
            "astId": 3891,
            "contract": "contracts/Launchpad.sol:Launchpad",
            "label": "isFundingComplete",
            "offset": 17,
            "slot": "4",
            "type": "t_bool"
          },
          {
            "astId": 3893,
            "contract": "contracts/Launchpad.sol:Launchpad",
            "label": "isCancelled",
            "offset": 18,
            "slot": "4",
            "type": "t_bool"
          },
          {
            "astId": 3895,
            "contract": "contracts/Launchpad.sol:Launchpad",
            "label": "isPromoted",
            "offset": 19,
            "slot": "4",
            "type": "t_bool"
          },
          {
            "astId": 3897,
            "contract": "contracts/Launchpad.sol:Launchpad",
            "label": "tokensSold",
            "offset": 0,
            "slot": "5",
            "type": "t_uint128"
          },
          {
            "astId": 3899,
            "contract": "contracts/Launchpad.sol:Launchpad",
            "label": "totalSupply",
            "offset": 16,
            "slot": "5",
            "type": "t_uint128"
          },
          {
            "astId": 3901,
            "contract": "contracts/Launchpad.sol:Launchpad",
            "label": "tokensForSale",
            "offset": 0,
            "slot": "6",
            "type": "t_uint128"
          },
          {
            "astId": 3903,
            "contract": "contracts/Launchpad.sol:Launchpad",
            "label": "creatorAllocation",
            "offset": 16,
            "slot": "6",
            "type": "t_uint128"
          },
          {
            "astId": 3905,
            "contract": "contracts/Launchpad.sol:Launchpad",
            "label": "liquidityAllocation",
            "offset": 0,
            "slot": "7",
            "type": "t_uint128"
          },
          {
            "astId": 3907,
            "contract": "contracts/Launchpad.sol:Launchpad",
            "label": "platformFeeTokens",
            "offset": 16,
            "slot": "7",
            "type": "t_uint128"
          },
          {
            "astId": 3909,
            "contract": "contracts/Launchpad.sol:Launchpad",
            "label": "promotionalOgPoints",
            "offset": 0,
            "slot": "8",
            "type": "t_uint128"
          },
          {
            "astId": 3911,
            "contract": "contracts/Launchpad.sol:Launchpad",
            "label": "id",
            "offset": 16,
            "slot": "8",
            "type": "t_uint32"
          },
          {
            "astId": 3913,
            "contract": "contracts/Launchpad.sol:Launchpad",
            "label": "name",
            "offset": 0,
            "slot": "9",
            "type": "t_string_storage"
          },
          {
            "astId": 3915,
            "contract": "contracts/Launchpad.sol:Launchpad",
            "label": "symbol",
            "offset": 0,
            "slot": "10",
            "type": "t_string_storage"
          },
          {
            "astId": 3917,
            "contract": "contracts/Launchpad.sol:Launchpad",
            "label": "description",
            "offset": 0,
            "slot": "11",
            "type": "t_string_storage"
          },
          {
            "astId": 3921,
            "contract": "contracts/Launchpad.sol:Launchpad",
            "label": "investments",
            "offset": 0,
            "slot": "12",
            "type": "t_mapping(t_address,t_uint128)"
          }
        ],
        "numberOfBytes": "416"
      },
      "t_uint128": {
        "encoding": "inplace",
        "label": "uint128",
        "numberOfBytes": "16"
      },
      "t_uint16": {
        "encoding": "inplace",
        "label": "uint16",
        "numberOfBytes": "2"
      },
      "t_uint256": {
        "encoding": "inplace",
        "label": "uint256",
        "numberOfBytes": "32"
      },
      "t_uint32": {
        "encoding": "inplace",
        "label": "uint32",
        "numberOfBytes": "4"
      },
      "t_uint64": {
        "encoding": "inplace",
        "label": "uint64",
        "numberOfBytes": "8"
      }
    }
  }
}